{
  "contractName": "demo",
  "abi": [
    {
      "inputs": [
        {
          "internalType": "uint256",
          "name": "_number1",
          "type": "uint256"
        },
        {
          "internalType": "uint256",
          "name": "_number2",
          "type": "uint256"
        }
      ],
      "name": "setter",
      "outputs": [],
      "stateMutability": "nonpayable",
      "type": "function"
    },
    {
      "inputs": [],
      "name": "sum_number",
      "outputs": [
        {
          "internalType": "uint256",
          "name": "",
          "type": "uint256"
        }
      ],
      "stateMutability": "view",
      "type": "function",
      "constant": true
    },
    {
      "inputs": [],
      "name": "getter1",
      "outputs": [
        {
          "internalType": "uint256",
          "name": "",
          "type": "uint256"
        }
      ],
      "stateMutability": "view",
      "type": "function",
      "constant": true
    },
    {
      "inputs": [],
      "name": "getter2",
      "outputs": [
        {
          "internalType": "uint256",
          "name": "",
          "type": "uint256"
        }
      ],
      "stateMutability": "view",
      "type": "function",
      "constant": true
    }
  ],
  "bytecode": "0x608060405234801561001057600080fd5b50610268806100206000396000f3fe608060405234801561001057600080fd5b506004361061004c5760003560e01c80630ec1632e146100515780635298f36d1461006f578063b0d482431461008b578063e255e5f9146100a9575b600080fd5b6100596100c7565b604051610066919061016c565b60405180910390f35b6100896004803603810190610084919061011d565b6100d0565b005b6100936100e2565b6040516100a0919061016c565b60405180910390f35b6100b16100fe565b6040516100be919061016c565b60405180910390f35b60008054905090565b81600081905550806001819055505050565b6000806001546000546100f59190610187565b90508091505090565b6000600154905090565b6000813590506101178161021b565b92915050565b6000806040838503121561013457610133610216565b5b600061014285828601610108565b925050602061015385828601610108565b9150509250929050565b610166816101dd565b82525050565b6000602082019050610181600083018461015d565b92915050565b6000610192826101dd565b915061019d836101dd565b9250827fffffffffffffffffffffffffffffffffffffffffffffffffffffffffffffffff038211156101d2576101d16101e7565b5b828201905092915050565b6000819050919050565b7f4e487b7100000000000000000000000000000000000000000000000000000000600052601160045260246000fd5b600080fd5b610224816101dd565b811461022f57600080fd5b5056fea26469706673582212209213918df5f188a7430b55131c7ffe91f1be663bb16f284bc82ad11c408456ac64736f6c63430008070033",
  "immutableReferences": {},
  "source": "\r\n//SPDX-License-Identifier: UNLICENSED\r\n\r\npragma solidity ^0.8.7;\r\n\r\ncontract demo{\r\n\r\n    uint number1;\r\n    uint number2;\r\n    function setter(uint _number1, uint _number2) public {\r\n        number1 = _number1;\r\n        number2 = _number2;\r\n    }\r\n\r\n    function sum_number() public view returns(uint){\r\n        uint number3 = number1 + number2;\r\n        return number3;\r\n    }\r\n\r\n    function getter1() public view returns(uint){\r\n        return number1;\r\n    }\r\n    function getter2() public view returns(uint){\r\n        return number2;\r\n    }\r\n}",
  "sourcePath": "C:\\Decentralized_E_Voting_system\\Backend_Program\\contracts\\demo.sol",
  "compiler": {
    "name": "solc",
    "version": "0.8.7+commit.e28d00a7.Emscripten.clang"
  },
  "schemaVersion": "3.4.10",
  "updatedAt": "2022-10-29T14:25:14.748Z",
  "networkType": "ethereum",
  "devdoc": {
    "kind": "dev",
    "methods": {},
    "version": 1
  },
  "userdoc": {
    "kind": "user",
    "methods": {},
    "version": 1
  }
}